:020000040000FA
:080000002928000000000000A7
:080008008B1E02320B191632A7
:100010000B1F1E322000111C1B321110200000305B
:10002000960083309700F50B1332781021001110E1
:100030000B138B1E200018108B130A322000063081
:1000400095000B11F60B0432F8108B120B1F8B135B
:1000500009002100703099000030870020308600B0
:100060003D000C3091003D000D3092000F14230034
:10007000971424008C1023008C018E012100043081
:10008000950021000C1122000C1121008C10F801A8
:10009000F501F601FE010330FB008935FC008935CE
:1000A000FD003C30FA00CF21B22127009312270037
:1000B00092168B1563008B112700921220000C1AE8
:1000C0000232EC21F1330F30F50014301C00013006
:1000D0001C00E52072202F3031219E203C30312140
:1000E000CA20E2337508F400200024008E01740851
:1000F0006D211E216430AE210C083039303A0319CD
:10010000FB33091A0332891A0932EF330F30F4072F
:10011000973074020318F4019820E7333F30210030
:100120008E0024008E00982020008C1EFE330800D4
:100130000A301C0003011C00E520080074080319A4
:100140002332952124008E0120008C1E1A32781C47
:100150001B3275086D21F900F00803190232F90A03
:1001600002320F30F0000F30F700F0080319F901E8
:1001700079081E21F008031DF003F703031DF53372
:10018000E33378108B12F5013F3021008E002400FC
:100190008E000800823085009A30840012001C0016
:1001A0000408F0000508F10070088400710885005B
:1001B00012001C0012001C000408F0000508F100E9
:1001C000E520810BF1331700080082308500733081
:1001D00084001700840700300318850A00082000F7
:1001E0009B0025003C3093009101200006309C00CC
:1001F0001700A52120001B36893689361C002000F7
:100200009110911CFE332500043091071108010262
:100210000318F5331700F818FE3325000230910259
:10022000031C053220009110911CFE33F633200090
:100230001C112500930122008C1008001C00823044
:100240008500533084001700893584070030031877
:10025000850A000822008E00840A000821008E0012
:1002600008001C002F3001022F30031C81003C309D
:1002700001023C3003188100210060309900200009
:100280009B309B0007309C0025007A368936980009
:100290007A0E30390C389A000330F00020009110AB
:1002A000911CFE33F00BFA3301087A02031907326E
:1002B00001087A02031CFA0A0318FA03E53317004F
:1002C00020001B081A02031CFC3325009A012000A1
:1002D0001C112100703099000800F101003A031947
:1002E0002232F000F030F2007002031C023271166C
:1002F000F000F23672087002031C0232F115F000B1
:10030000F23672087002031C02327115F000F236E8
:1003100072087002031C0232F114F000F236720807
:1003200070020318711471080800F5002000833072
:10033000970000309600C130980020001110210075
:1003400011140B178B1778140800F60020000630E4
:1003500095000B118B168B17F8140800A521F818BF
:10036000FE330800FB1C07320130FB07890103182C
:10037000FC0A0318FD0A7B351C007C0D1C007D0D5A
:100380001C007E3FFB077F3F0318FC0A1700031881
:10039000FD0AFD36FC0CFB0C7F317F310800240088
:1003A0008E010A301C0001081E2119301C007F3FFD
:1003B0001C00E520810BF73317003F3021008E0031
:1003C00024008E0014301C0015301C00E5202F3056
:1003D00031213C303121080009307E020318FE0132
:1003E0007E08003A03194532003A013A03193C32BB
:1003F000013A023A03193332023A033A03192A3214
:10040000033A043A03192132043A053A031918321F
:10041000053A063A03190F32063A073A031906322B
:10042000073A853085002A308400273282308500E3
:100430008D308400223284308500993084001D3252
:1004400084308500463084001832843085000930BD
:100450008400133283308500C83084000E3283302C
:100460008500753084000932833085001E30840099
:10047000043282308500A130840012001C0012007A
:100480001C0012001C000408F0000508F100E52023
:1004900070088400710885000A30AE21810BEF33AB
:1004A0007F31FE0A08000034FF340834F33404348A
:1004B000F3340434EB340434DB340234F5340234E2
:1004C000ED340234DD340134F6340134EE340134D9
:1004D000DE340034FF340034FF340034FF340034A1
:1004E000FF340034FF34EE34E134D434C834BD3446
:1004F000B234A8349E3495348D3485347E347634C9
:100500007034693463345E34583453344F344A346D
:10051000463442343F343B340034063464340E34C1
:100520006434103464340C3464340034C834073414
:10053000C834073403346434073464340C3464340A
:1005400010343E34643409346434093464340A3475
:1005500064340C3464340C3464340A346434093440
:100560006434073464340534643405346434073443
:10057000643409349634073432340534C8340534CD
:10058000643409346434093464340A3464340C3413
:1005900064340C3464340A34643409346434073405
:1005A0006434053464340534643407346434093401
:1005B0009634073432340534C8340534643407348F
:1005C00064340734643409346434053464340734DF
:1005D0003234093432340A3464340934643405342E
:1005E000643407343234093432340A34643409341C
:1005F000643407346434053464340734C834003454
:10060000643409346434093464340A3464340C3492
:1006100064340C3464340C3464340A34643409347F
:100620006434073464340534643405346434073482
:100630009634073432340534C83405342B346434EA
:100640000934643409346434093464340934643456
:100650000734643405346434053464340434643455
:100660000234643402346434053464340934643448
:100670000E3464340E3464340E3464340E34643412
:100680000C3464340A3464340A3464340934643411
:100690000734643407346434093464340A34643409
:1006A000093464340A346434093464340D346434F1
:1006B0000A346434093464340934643407346434E7
:1006C00005346434053464340434643402346434EA
:1006D00004346434043464340434643404346434DA
:1006E000053464340434FF3402342934C834073404
:1006F0006434073464340B3464340B3464340934A4
:1007000064340B3464340734C83407346434073435
:1007100064340B3464340B3464340934C8340B341B
:10072000C8340B3464340B3464340934643407340F
:1007300064340B3464340E3464340B34C8340E34F3
:1007400064340E3464340B346434073464340B344E
:10075000C8340934C83407346434073464340B347F
:1007600064340B34323409343234073464340B3497
:1007700064340734C8340B3464340B3432340934F1
:100780003234073464340B3464340934C8340734E5
:1007900020346434053464340734643409346434F4
:1007A00005346434053464340734643409346434FF
:1007B00005346434093464340A34C8340C34643481
:1007C000093464340A34C8340C344B340C341934CE
:1007D0000E3432340C3432340A3464340934643420
:1007E00005344B340C3419340E3432340C34323476
:1007F0000A346434093464340534643405346434AC
:100800000C34C83405346434053464340C34C834CE
:1008100005341E34643407346434093464340B34CE
:1008200064340734C83409346434093464340B3410
:10083000C8340C34C8340C34C8340B34C8340B34CA
:10084000643407346434093464340B346434073456
:10085000C83409346434093464340B34C8340C3477
:10086000C8340E34FF340734C8340E3464340E34C4
:1008700064340C34C8340B346434093464340B34B9
:10088000C8340C34C8340E34FF3409342934643489
:100890000C3464340C3464340E3496340B343234F7
:1008A0000C3464340E3464341034643410346434DE
:1008B00011349634103432340E3464340C346434CD
:1008C0000E3464340C3464340B34FF340C3464342C
:1008D000133464341334643413349634133432349C
:1008E0001134643410346434113464341134643495
:1008F0001134963411343234103464340E34643488
:100900001034323411343234103432340E34323440
:100910000C34963410343234113464341334323499
:100920001534323411346434103464340E34FF34EA
:100930000C34483464340E34C83411346434133401
:10094000963415343234143464341534C8341334C2
:100950006434103496340C3432340E34643410342D
:10096000C834113464340E3496340E3432340D34B9
:1009700064340E34C834103464340D34C83409344B
:1009800064340E34C834113464341334963415345A
:100990003234143464341534C834133464341034A9
:1009A00096340C3432340E346434103496341134AA
:1009B0003234103464340E3496340D3432340B3403
:1009C00064340D34C8340E3464340E34FF341834B7
:1009D000963418343234173464341534C83413342C
:1009E0006434103496340C3432340E34643410349D
:1009F000C834113464340E3496340E3432340D3429
:100A000064340E34C834103464340D34FF34093483
:100A1000FF341834963418343234173464341534AF
:100A2000C83413346434103496340C3432340E34F5
:100A300064341034963411343234103464340E3447
:100A400096340D3432340B3464340D34FF340E34A8
:100A5000FF340E342234963404343234083464348F
:100A60000B3432340734323404349634093432349B
:100A70000C346434103432340E3432340C34963442
:100A80000B3432340C3464340E3464341034643433
:100A90000C3464340934C834093496341134323493
:100AA00013346434153432341334323411349634FC
:100AB0001034323411346434103432340E3432345D
:100AC0000C3496340B3432340C3464340E346434C5
:0E0AD000103464340C3464340934C8340934EE
:020ADE000034E2
:020AE0000034E0
:020000040001F9
:02000E00E439D3
:020010007F1E51
:00000001FF
