:020000040000FA
:080000002928000000000000A7
:080008008B1E02320B191632A7
:100010000B1F1E322000111C1B321110200000305B
:10002000960083309700F50B1332781021001110E1
:100030000B138B1E200018108B130A322000063081
:1000400095000B11F60B0432F8108B120B1F8B135B
:1000500009002100703099000030870020308600B0
:100060003D000C3091003D000D3092000F14230034
:10007000971424008C1023008C018E012100043081
:10008000950021000C1122000C11F801F501F60178
:100090003B30FA00882127009312270092168B1517
:1000A00063008B112700921214301C0001301C00D9
:1000B000D4206120353007218C203B300721B82027
:1000C000EA33F401200024008E01643084210C08FE
:1000D0003039303A0319FB33091A0332891A0C32CA
:1000E000F2330F30F407973074020318F4018620BE
:1000F00074084321F620E7333F3021008E002400AE
:100100008E00862020008C1EFE3308000A301C0062
:1001100003011C00D42008007408031923326B214A
:1001200024008E0120008C1E1A32781C1B327508A8
:100130004321F900F00803190232F90A02320F30A4
:10014000F0000F30F700F0080319F9017908F620E4
:10015000F008031DF003F703031DF533E3337810B4
:100160008B12F5013F3021008E0024008E00080024
:100170008730850085174630840012001C00040873
:10018000F0000508F1007008840071088500120075
:100190001C0012001C000408F0000508F100D42027
:1001A000810BF13317000800873085008517203058
:1001B000840017008407003F20009B001C00893644
:1001C00025009100170001398935890E0C389300FC
:1001D00021008C10200006309C0017008421200094
:1001E0001C112500930121008C1408001C0087308D
:1001F00085008517003084001700893584070008C2
:1002000022008E00840A000821008E0008001C00D5
:10021000353001023530031C81003B3001023B3098
:100220000318810021006030990020009B309B0062
:1002300007309C0025007A36893698007A0E3039CE
:100240000C389A000330F00020009110911CFE330E
:10025000F00BFA3301087A020319073201087A0217
:10026000031CFA0A0318FA03E533170020001B08E1
:100270001A02031CFC3325009A0120001C112100E6
:10028000703099000800F101003A03192232F000A1
:10029000F030F2007002031C02327116F000F236E8
:1002A00072087002031C0232F115F000F236720877
:1002B0007002031C02327115F000F23672087002EF
:1002C000031C0232F114F000F236720870020318B7
:1002D000711471080800F500200083309700003089
:1002E0009600C130980020001110210011140B1746
:1002F0008B1778140800F6002000063095000B11CB
:100300008B168B17F81408007B21F818FE330800B1
:1003100024008E010A301C00403FF62019301C00DA
:100320007F3F1C00D420810BF73317003F302100A2
:100330008E0024008E0014301C0015301C00D420C8
:0A034000353007213B30072108008B
:100E00000034FF340834F3340434F3340434EB3462
:100E10000434DB340234F5340234ED340234DD348E
:100E20000134F6340134EE340134DE340034FF345E
:100E30000034FF340034FF340034FF340034FF3416
:100E4000EE34E134D434C834BD34B234A8349E34E2
:100E500095348D3485347E3476347034693463341B
:100E60005E34583453344F344A34463442343F3479
:100E70003B34063464340E346434103464340C343B
:100E800064340034C8340734C83407340334643459
:0A0E9000073464340C346434103469
:040E9A0000340034EC
:020000040001F9
:02000E00E439D3
:020010007F1E51
:00000001FF
