:020000040000FA
:080000002928000000000000A7
:080008008B1E02320B191632A7
:100010000B1F1E322000111C1B321110200000305B
:10002000960083309700F50B1332781021001110E1
:100030000B138B1E200018108B130A322000063081
:1000400095000B11F60B0432F8108B120B1F8B135B
:1000500009002100703099000030870020308600B0
:100060003D000C3091003D000D3092000F14230034
:10007000971424008C1023008C018E012100043081
:10008000950021000C1122000C11F801F501F60178
:100090003C30FA00902127009312270092168B150E
:1000A00063008B112700921220000C1A0232AD213E
:1000B000F2330F30F50014301C0001301C00DC203E
:1000C000682034300F2194203C300F21C020E333CE
:1000D0007508F400200024008E0174084B21FE20D6
:1000E00064308C210C083039303A0319FB33091A7B
:1000F0000332891A0932EF330F30F4079730740254
:100100000318F4018E20E7333F3021008E002400D5
:100110008E008E2020008C1EFE3308000A301C004A
:1001200003011C00DC20080074080319233273212A
:1001300024008E0120008C1E1A32781C1B32750898
:100140004B21F900F00803190232F90A02320F308C
:10015000F0000F30F700F0080319F9017908FE20CC
:10016000F008031DF003F703031DF533E3337810A4
:100170008B12F5013F3021008E0024008E00080014
:100180008730850085174630840012001C00040863
:10019000F0000508F1007008840071088500120065
:1001A0001C0012001C000408F0000508F100DC200F
:1001B000810BF13317000800873085008517203048
:1001C000840017008407003F20009B001C00893634
:1001D00025009100170001398935890E0C389300EC
:1001E00021008C10200006309C0017008C2120007C
:1001F0001C112500930121008C1408001C0087307D
:1002000085008517003084001700893584070008B1
:1002100022008E00840A000821008E0008001C00C5
:10022000343001023430031C81003C3001023C3088
:100230000318810021006030990020009B309B0052
:1002400007309C0025007A36893698007A0E3039BE
:100250000C389A000330F00020009110911CFE33FE
:10026000F00BFA3301087A020319073201087A0207
:10027000031CFA0A0318FA03E533170020001B08D1
:100280001A02031CFC3325009A0120001C112100D6
:10029000703099000800F101003A03192232F00091
:1002A000F030F2007002031C02327116F000F236D8
:1002B00072087002031C0232F115F000F236720867
:1002C0007002031C02327115F000F23672087002DF
:1002D000031C0232F114F000F236720870020318A7
:1002E000711471080800F500200083309700003079
:1002F0009600C130980020001110210011140B1736
:100300008B1778140800F6002000063095000B11BA
:100310008B168B17F81408008321F818FE33080099
:1003200024008E010A301C00403FFE2019301C00C2
:100330007F3F1C00DC20810BF73317003F3021008A
:100340008E0024008E0014301C0015301C00DC20B0
:1003500034300F213C300F210800873085004D30AC
:10036000840012001C0012001C0012001C00040873
:10037000F900DC207908840019308C21810BF333DB
:040380007F310800C1
:100E00000034FF340834F3340434F3340434EB3462
:100E10000434DB340234F5340234ED340234DD348E
:100E20000134F6340134EE340134DE340034FF345E
:100E30000034FF340034FF340034FF340034FF3416
:100E4000EE34E134D434C834BD34B234A8349E34E2
:100E500095348D3485347E3476347034693463341B
:100E60005E34583453344F344A34463442343F3479
:100E70003B34063464340E346434103464340C343B
:100E800064340034C8340734C83407340334643459
:100E9000073464340C34643410343E34643409341C
:100EA0006434093464340A3464340C3464340C34E7
:100EB00064340A34643409346434073464340534E3
:100EC00064340534643407346434093496340734A4
:100ED00032340534C8340534643409346434093494
:100EE00064340A3464340C3464340C3464340A34A6
:100EF00064340934643407346434053464340534A8
:100F00006434073464340934963407343234053495
:100F1000C834053464340734643407346434093421
:100F200064340534643407343234093432340A34D6
:100F30006434093464340534643407343234093495
:100F400032340A3464340934643407346434053484
:100F500064340734C83400346434093464340934E4
:100F600064340A3464340C3464340C3464340C3423
:100F700064340A3464340934643407346434053422
:100F80006434053464340734963407343234053419
:040F9000C834053428
:040F940000340034F1
:020000040001F9
:02000E00E439D3
:020010007F1E51
:00000001FF
